:020000040800F2
:100000001011002029020008132900080922000805
:10001000112900081F040008093200080000000030
:10002000000000000000000000000000DB2A0008C3
:10003000B105000800000000D92A0008DD2A0008E8
:10004000430200084302000843020008430200087C
:10005000430200084302000843020008430200086C
:10006000430200084302000843020008AD040008F0
:10007000B9040008C5040008D1040008DD04000824
:10008000430200084302000843020008430200083C
:10009000430200084302000843020008430200082C
:1000A000430200084302000843020008430200081C
:1000B000430200084302000843020008430200080C
:1000C00043020008430200084302000843020008FC
:1000D00043020008D931000843020008F13100084A
:1000E00043020008430200084302000843020008DC
:1000F000430200084302000843020008E904000824
:1001000043020008430200084302000843020008BB
:10011000E92D0008012E0008852B00084302000885
:100120004302000843020008F504000843020008E7
:10013000430200084302000843020008430200088B
:10014000430200084302000843020008430200087B
:1001500043020008430200080105000843020008AA
:10016000430200084302000843020008430200085B
:100170004302000843020008430200080000000098
:10018000430200084302000800F002F800F03CF8C7
:100190000AA090E8000C82448344AAF10107DA45E2
:1001A00001D100F031F8AFF2090EBAE80F0013F0F8
:1001B000010F18BFFB1A43F001031847603100001C
:1001C00080310000103A24BF78C878C1FAD85207AD
:1001D00024BF30C830C144BF04680C6070470000C1
:1001E0000023002400250026103A28BF78C1FBD840
:1001F000520728BF30C148BF0B6070471FB503F0DE
:1002000077F81FBD10B510BD00F0CFF81146FFF70D
:10021000F5FF03F00BF800F0EDF803B4FFF7F2FF81
:1002200003BC00F0F5F80000094880470948004782
:10023000FEE7FEE7FEE7FEE7FEE7FEE7FEE7FEE796
:10024000FEE7FEE704480549054A064B70470000F3
:10025000752B000889010008100B002010110020E8
:10026000100D0020100D002053EA020C00F06980F0
:100270002DE9F04B4FF00006002B1FBFB3FA83F5BA
:1002800003FA05F424FA05F65E4012BF1643B2FAEB
:1002900082F502FA05F4C5F120051EBF22FA05FC1D
:1002A00044EA0C04203556EA044C4FEA144418BFC3
:1002B000641C4FF000084FF00009904271EB030CF2
:1002C00039D3002919BFB1FA81F701FA07F6B0FA5C
:1002D00080F700FA07F6C7F120071EBF20FA07FCD7
:1002E00046EA0C062037B6FBF4FCA7EB0507103FE7
:1002F00007F01F0BCBF120060CFA0BFB2CFA06F6CD
:1003000044BFB3460026202FA4BF5E464FF0000B2B
:100310005BEA060C08BF4FF0010B19EB0B09ABFBB6
:10032000027C48EB0608C01B06FB02CC0BFB03CC8F
:1003300071EB0C01C1E70B46024641464846BDE859
:10034000F08B13B54FF000004FF00001AFF30080C9
:10035000BDE81C4070474FF0000200B513469446BC
:100360009646203922BFA0E80C50A0E80C50B1F10D
:100370002001BFF4F7AF090728BFA0E80C5048BF21
:100380000CC05DF804EB890028BF40F8042B08BFBF
:10039000704748BF20F8022B11F0804F18BF00F8BB
:1003A000012B7047704770477047754600F02CF876
:1003B000AE4605006946534620F00700854618B052
:1003C00020B5FFF73FFFBDE820404FF000064FF09B
:1003D00000074FF000084FF0000B21F00701AC467A
:1003E000ACE8C009ACE8C009ACE8C009ACE8C00999
:1003F0008D46704710B50446AFF300802046BDE837
:100400001040FFF70ABF000000487047AC0A002008
:1004100001491820ABBEFEE7260002007047FEE748
:1004200038B5044600680168C943C90625D4016887
:1004300040680090204601F061FB10492068884226
:1004400003D114220E490F4813E00F49884203D10B
:1004500014220E490E480CE00E49884203D11422A2
:100460000D490E4805E00E49884206D10D490E4857
:100470001422BDE8384001F0AFBE38BD0010014085
:1004800010000020A40200200048004024000020AA
:10049000E8020020004C0040380000201C02002030
:1004A000005000404C00002060020020014800F095
:1004B000DDB80000EC030020014800F0D7B80000D0
:1004C0006C050020014800F0D1B800002C0300208A
:1004D000014800F0CBB80000CC050020014800F036
:1004E000C5B800008C030020014800F0BFB8000030
:1004F0004C040020014800F0B9B80000AC04002012
:10050000014800F0B3B800000C0500200168182372
:10051000CAB2103AB2FBF3F2054B6FF30901032A9A
:100520009B5CC36500D9091D8165084670470000C2
:10053000FA32000810B5014600208B698A6A4FF034
:10054000C07453B1B3F5005F15D072B1012A0CD05D
:10055000022A0AD0032A09D104E01AB1012A06D0DE
:10056000022A03D1C96AC90100D5012010BDC96A98
:10057000A142FAD010BD002AF7D0012AF2D0022AF7
:10058000F3D0032AF3D010BD30B50468256825F4F4
:1005900080252560046863608368402B036803D06E
:1005A00099600068C26030BD9A600068C16030BD6B
:1005B000704772B6FEE72DE9F0410446876D00F002
:1005C000D7FA064694F835000025022806D0802088
:1005D000606584F834500120BDE8F081206801682E
:1005E00021F0160101602068416921F0800141611C
:1005F000206C08B9A06C20B12068016821F00801C6
:1006000001602068016821F0010101600CE000F048
:10061000AFFA801B052807D920206065032084F8E5
:10062000350084F83450D7E720680068C007EED161
:1006300094F85C103F208840B860012084F83500B1
:1006400084F834500020C7E790F83510022903D011
:100650008021416501207047052180F83510006830
:10066000016821F001010160002070472DE9F84385
:1006700004464FF00009CDF8009063484FF416513E
:10068000A56D0068B0FBF1F72E6894F85C100820A7
:1006900000FA01F131420FD021680A6852070BD5E8
:1006A0000A6822F004020A6094F85C108840A8608E
:1006B000606D40F00100606594F85C104FF0010837
:1006C00008FA01F0304208D021684969090604D5CA
:1006D000A860606D40F00200606594F85C10042032
:1006E0008840304208D021680968890704D5A8608D
:1006F000606D40F00400606594F85C101020884044
:10070000304218D021680968090714D5A86020680C
:100710000168490304D50068000308D5A16C07E00F
:100720000168C90503D4016821F008010160216C4A
:1007300009B12046884794F85C1020208840304258
:1007400031D021680968C9062DD5A86094F8350014
:1007500005282068016806D0490347D500680003D2
:100760001DD4616C1CE021F0160101602068416914
:1007700021F080014161206C08B9A06C20B1206893
:10078000016821F00801016094F85C103F20884066
:10079000A86084F8358084F83490216D1FE0E16B07
:1007A00009B120468847606D00282BD0606DC007D6
:1007B00014D0052084F835002068016821F001017B
:1007C00001600098401C0090B84203D8206800687F
:1007D000C007F6D184F8358084F83490E16C0029A4
:1007E00010D001B02046BDE8F04308470168C905B4
:1007F000D5D4016821F01001016084F8358084F8B7
:100800003490CCE7BDE8F8830C0000202DE9F041DE
:10081000044600F0ADF906465CB1022084F83500CC
:10082000002584F834502068016821F0010101603E
:100830000DE00120BDE8F08100F09AF9801B052849
:1008400005D920206065032084F83500F2E7206890
:100850000068C007F0D12268116820480140D4E93F
:1008600001031843D4E9033633431843636918433B
:10087000A3691843E3691843236A18430843616A6C
:10088000042903D1D4E90B131943084310602068ED
:100890004069666A20F0070130460E4301270428AC
:1008A0000CD1A06A0643E06A40B12046FFF742FE41
:1008B00020B14020606584F83570BAE72068466151
:1008C0002046FFF723FE94F85C203F219140816091
:1008D000656584F835700020ACE700003F8010F0BB
:1008E0002DE9F0410446866D90F83400002501287A
:1008F0000DD0012084F8340094F835700020012FC9
:1009000007D084F8340002252846BDE8F081022093
:10091000FBE7022784F8357060652046FFF734FE58
:1009200094F85C103F208840B0602068016841F076
:1009300016010160206C20B12068016841F00801B7
:1009400001602068016841F001010160DCE70000FE
:1009500070B5044600F00CF90546601C02D004484E
:100960000078044400F004F9401BA042FAD370BDA3
:10097000000000202DE9F84FDFF8BCA1002201257E
:1009800003264FF00F090AF1040BAAF1040E00BF71
:100990000B6805FA02F42340A34270D10F7907F0E7
:1009A0000307012F01D0022F16D187684FEA4208B2
:1009B00006FA08FC27EA0C07D1F80CC00CFA08FC70
:1009C0004CEA070CC0F808C04768A7430C79C4F389
:1009D000001494403C4344600C79E443A4070AD0DB
:1009E000C4684FEA420C06FA0CF7BC438F6807FA5A
:1009F0000CF72743C7600C7904F00304022C12D1D2
:100A0000D40800EB840CDCF820405707FF0E09FAED
:100A100007F824EA0804D1F8108008FA07F848EA31
:100A20000408CCF8208004684FEA420C06FA0CF760
:100A3000BC430F7907F0030707FA0CF72743076059
:100A40004C6814F4403F70D03C4C276847F4804712
:100A50002760246822F0030704F480440094384C93
:100A600007EB040CDCF8084897074FEA177809FAF7
:100A700008F7BC43334FB84202D1002724E054E0CA
:100A8000314FB84201D101271EE0304FB84201D1A9
:100A9000022719E02E4FB84201D1032714E02D4F51
:100AA000B84201D104270FE02B4FB84201D10527EE
:100AB0000AE02A4FB84201D1062705E0284FB84284
:100AC00001D1072700E0082707FA08F72743CCF8E9
:100AD0000878DAF800405746D1F804C09C435FEA32
:100AE000CC2C00D51C433C60DBF800405F46D1F8BD
:100AF00004C09C435FEA8C2C00D51C433C60DEF8AC
:100B000000407746D1F804C09C435FEA8C3C00D596
:100B10001C433C60084F083F3C68D1F804C09C432C
:100B20005FEACC3C00D51C433C60521C102AFFF409
:100B30002FAFBDE8F88F0000083C01404438024068
:100B40000030014000000240000402400008024062
:100B5000000C024000100240001402400018024045
:100B6000001C02400AB1816170470904FBE70000E4
:100B700001488068704700000000002070B5040044
:100B800025D094F83D00002520B984F83C5020463B
:100B900000F050F9242084F83D002068016821F01D
:100BA000010101602068016841F400410160206892
:100BB000016821F40041016000F0A6FA4D4A616825
:100BC000914201D84C4900E04C49884201D20120B1
:100BD00070BD4B492368B0FBF1F15E6826F03F061B
:100BE0000E435E606368934206D94FF4967359438F
:100BF0004FF47A73B1FBF3F12368491C1E6A26F0A7
:100C00003F06314319626168914210D84900401E85
:100C1000B0FBF1F2521CC2F30B02042A01D20420F1
:100C200022E0B0FBF1F0401CC0F30B001CE0A26816
:100C3000F2B301EBC10303EB0116431EB3FBF6F362
:100C40005B1C43F480431B0549D092B301EBC10206
:100C500002EB0111401EB0FBF1F0401CC0F30B0091
:100C600040F4804040F400402168CA694CF6FF73AC
:100C70009A431043C861D4E9071001432068026811
:100C800022F0C00211430160D4E90301014320684E
:100C9000826848F2FF339A4311438160D4E9050129
:100CA00008432168CA6822F0FF021043C86001E0CF
:100CB0000EE016E02068016841F001010160256442
:100CC000202084F83D00256384F83E50002070BD4C
:100CD00001EB4106431EB3FBF6F35B1CB3E70120B7
:100CE000C2E701EB4101401EB0FBF1F0401CC0F334
:100CF0000B00B7E7A086010080841E0000093D00BC
:100D000040420F002DE9FF4F83B09A46DDE911976D
:100D100093460446DDF84080FFF72AFF054694F825
:100D20003D0020287FD1192301224049204600950B
:100D300001F0FCFA002876D194F83C00012872D02A
:100D4000012084F83C0020680168C90703D10168CC
:100D500041F0010101602068016821F40061016037
:100D6000212084F83D00402084F83E0000262664BF
:100D7000C4F82480A4F82A90608D20852C48E06275
:100D8000CDE9007553465A462046049901F054FABD
:100D900070B930E02A463946204601F046FB58B18A
:100DA000206C042804D12068016841F400710160BE
:100DB000012007B0BDE8F08F606A21680078086103
:100DC000606A401C6062218D491E89B22185628D56
:100DD000521E628522685369DB435B070BD469B1FD
:100DE00000781061606A401C6062208D401E208582
:100DF000608D401E6085208D0028CBD12A46394663
:100E0000204601F06DFA0028CAD154F83D0B016864
:100E100041F400710160202004F81E09E67766772E
:100E20000020C6E7FFE70220C3E700000200100031
:100E30000000FFFF10B586B0044614216846FFF796
:100E40008AFA14492068884221D113480021026897
:100E500042F002020260006800F0020005904FF4C8
:100E6000406000901220CDE901010320039004208E
:100E7000049069460948FFF77DFD07481030016876
:100E800041F480010160006800F48000059006B024
:100E900010BD0000005800403038024000040240FD
:100EA0000248816802781144816070470000002088
:100EB0000B4810B5016841F400710160016841F40C
:100EC00080610160016841F480710160032000F0DD
:100ED0006FF80F2000F006F800F024F8002010BD95
:100EE000003C024070B50D4D04464FF47A712878ED
:100EF000B1FBF0F00A490968B1FBF0F000F00AFB21
:100F000048B9102C07D200222146501E00F030F8BC
:100F100000206C6070BD012070BD0000000000204A
:100F20000C0000200A4808B5016841F480410160C6
:100F3000006800F4804000900548001F016841F0FF
:100F400080510160006800F08050009008BD0000F2
:100F500044380240002809DB00F01F0201219140C3
:100F60004009800000F1E020C0F800117047000047
:100F7000F0B40E4B1B680C46C3F30223C3F1070504
:100F8000042D00D90425191D072901D2002300E0F2
:100F9000DB1E012606FA05F1491E214099409E40BC
:100FA000761E16403143F0BC02F02FB90CED00E084
:100FB000064900F0070208684FF6FF03184040EAB0
:100FC0000220034A10430860704700000CED00E067
:100FD0000000FA052DE9F0470E46050065D0DFF860
:100FE0001481D8F80000F7B200F00700B04207D231
:100FF00088F80070D8F8000000F00700B04254D123
:1010000028683D4C810712D5400703D5206840F47D
:10101000E05020602878000703D5206840F4604045
:1010200020602068A96820F0F0000843206028783C
:10103000C0072DD0304968680839012812D002282D
:1010400013D0032811D00968890700292DDA2168F7
:1010500021F0030101432160FFF78AFD814641F23F
:10106000883A0EE009688903EFE709688901ECE72F
:10107000FFF77EFDA0EB0901514502D90320BDE831
:10108000F0872068696800F00C00B0EB810FEFD1A9
:10109000D8F80010404601F00701B14207D90770A7
:1010A000006800F00700B04201D00120E7E728788F
:1010B000400705D52068E96820F4E0500843206027
:1010C0002878000706D52068296920F4604040EAA6
:1010D000C100206000F038F82168084AC1F303110C
:1010E000515CC8400649086006480068FFF7FAFEF0
:1010F0000020C4E7003C02400838024002330008E8
:101100000C0000200400002004480549006809681C
:10111000044AC1F38221515CC84070470C00002092
:10112000083802401233000804480549006809687D
:10113000044AC1F34231515CC84070470C000020A2
:101140000838024012330008154810B5006810F046
:101150000C02144813D04110042A0FD0082A0ED1D3
:101160000F4C241F2268236802F03F025B0207D560
:101170002068C0F38810A0FB010106E0084610BDFE
:101180002168C1F38811A1FB00010023FFF76CF86F
:101190002168C1F30141491C4900B0FBF1F010BDC9
:1011A000083802400024F4002DE9F84F04006ED006
:1011B0002078DFF84C93C007A9F104054AD009F163
:1011C00004000168C1F38101012908D00068C0F35F
:1011D000810002280AD1D9F80000400206D528680B
:1011E000800337D560680028E1D033E06068B0F54F
:1011F000803F10D0B0F5A02F286810D020F48030A8
:101200002860286820F4802028606068A8B1FFF773
:10121000AFFC06460DE0286840F48030F4E740F467
:1012200080202860F7E700BFFFF7A2FC801B64283E
:1012300073D828688003F7D50CE0FFF799FC0646C1
:1012400005E000BFFFF794FC801B6428F0D82868F5
:101250008003F7D42078DFF8AC8280074FF0000AD3
:101260003ED5A748001D016811F00C0F08D000689A
:10127000C0F3810002280BD1D9F80000400207D446
:101280002868800716D5E068012800D112E033E114
:10129000E068B8B10120C8F80000FFF769FC064615
:1012A00005E000BFFFF764FC801B0228C0D8286857
:1012B0008007F7D52868216920F0F80040EAC100CE
:1012C00028600DE0C8F800A0FFF752FC064604E0D5
:1012D000FFF74EFC801B02281FD828688007F7D430
:1012E0002078000722D5864F87486169703771B131
:1012F00001210160FFF73CFC064604E0FFF738FCE3
:10130000801B022809D838688007F7D50EE0C0F89E
:1013100000A0FFF72DFC064605E082E0FFF728FC61
:10132000801B02287DD838688007F7D420784007D2
:1013300068D5DFF8CCB100270BF13C0BDBF80000DF
:10134000C0000BD4DBF8001041F08051CBF8001046
:10135000DBF80000012700F0805000906B4E3068F1
:10136000C00510D4306840F480703060FFF700FC96
:10137000009005E0FFF7FCFB0099401A022850D8C6
:101380003068C005F6D55E4EA0686C3601280FD0D7
:101390000528306810D020F001003060306820F05F
:1013A00004003060A068B8B1FFF7E2FB00900FE0E6
:1013B000306840F00100F4E740F004003060F7E7E7
:1013C000FFF7D6FB0099411A41F28830814266D876
:1013D00030688007F4D50EE0FFF7CAFB009007E005
:1013E000FFF7C6FB0099411A41F28830814256D876
:1013F00030688007F4D42FB1DBF8001021F0805161
:10140000CBF80010A069C8B33D49091D0968C1F3B4
:10141000810102294AD00228504607D0C8F860004E
:1014200000E03CE0FFF7A4FB04463BE04746C8F879
:101430006000FFF79DFB064605E000BFFFF798FB45
:10144000801B02282BD828688001F7D4D4E9070133
:101450000843A16A2E4A490802EB0141626A41EA47
:101460008211084394F82C1040EA0161C9F8001079
:1014700001203866FFF77CFB044606E03EE000BF33
:10148000FFF776FB001B022809D828688001F7D5F2
:1014900034E000BFFFF76CFB001B022802D90320D9
:1014A000BDE8F88F28688001F4D427E00128F7D040
:1014B000D9F80000E26900F4800191421CD1226A4F
:1014C00000F03F01914217D147F6C071626A0140B6
:1014D000B1EB821F10D1A26A4FF0FF3300F440310C
:1014E00003EB5202B1EB024F06D194F82C1000F03E
:1014F0007060B0EB016F01D00120D1E70020CFE791
:101500000438024000004742800E4742007000400D
:101510000000FFFF10B5401EB0F1807F01D3012015
:1015200010BD4FF0E02460610F21601701F06DFEE7
:101530000020A06107202061002010BD7047704787
:1015400070B590F83C20012A32D0012480F83C404C
:10155000022280F83D2003685A689D6822F07006D8
:101560000A6832435A60134B02689A4214D0B2F1AF
:10157000804F11D0104B9A420ED0104B9A420BD094
:101580000F4B9A4208D00F4B9A4205D00E4B9A420D
:1015900002D00E4B9A4204D1496825F080031943CA
:1015A000916080F83D40002180F83C10084670BDF5
:1015B000022070BD0000014000040040000800400F
:1015C000000C0040000401400040014000180040B1
:1015D00010B5040003D094F83D0010B107E00120DD
:1015E00010BD002084F83C00204600F01FF80220C7
:1015F00084F83D00211D206801F0D0FA012084F814
:10160000460084F83E0084F83F0084F8400084F8E7
:10161000410084F8420084F8430084F8440084F8D0
:10162000450084F83D00002010BD000008B5114AB7
:1016300001681148914211D1016841F01001016027
:101640000068002200F01000009011463620FFF7DD
:101650008FFCBDE808403620FFF77CBC074A91426A
:1016600007D1016841F020010160006800F020000E
:10167000009008BD001000404038024000140040B7
:101680002DE9F0410D46040003D094F83D0018B157
:1016900008E00120BDE8F081002084F83C002046ED
:1016A00000F040F8022084F83D002068816844F290
:1016B000070291438160211D206801F06FFA2268C2
:1016C00090689169166A2B68AF69034340F2033052
:1016D000814341EA0721A868EF6908434FF6FC41BE
:1016E0008843E96840EA0720014328692F6A00011E
:1016F00040EA0730084369686D6926F0AA0646EAA1
:101700000515294393602268906154F8460B0162E5
:10171000012004F81F09E0752076E0762077A07597
:101720000020B7E730B587B0044614216846FEF7BD
:1017300012FE214824681F4D00221F491038022341
:10174000AC4216D10C6844F002040C60096801F048
:1017500002010591016841F00101016000686946DC
:1017600000F001000590C0200090CDE9013213483F
:1017700019E0134DAC421AD10C6844F004040C601B
:10178000096801F004010591016841F00801016058
:101790000068694600F0080005904FF44050009042
:1017A000CDE901320748CDE90323FFF7E3F807B09D
:1017B00030BD0000000400404038024000000240FC
:1017C00000080040000C0240704770B504460068F5
:1017D00001694FF00005C943890715D4C168C943A1
:1017E000890711D4E91E01610120207720688069F2
:1017F0008007204602D0FFF7E7FF04E000F0D4F8AE
:10180000204600F077F9257720680169C943490728
:1018100017D4C168C943490713D46FF004010161AB
:10182000022020772068806910F4407F204602D093
:10183000FFF7CAFF04E000F0B7F8204600F05AF9BD
:10184000257720680169C943090716D4C168C943CF
:10185000090712D46FF00801016104202077206885
:10186000C0698007204602D0FFF7AEFF04E000F019
:101870009BF8204600F03EF9257720680169C943AE
:10188000C90617D4C168C943C90613D46FF0100143
:101890000161082020772068C06910F4407F20464D
:1018A00002D0FFF791FF04E000F07EF8204600F040
:1018B00021F9257720680169C943C90708D1C168A2
:1018C000C943C90704D1891E0161204600F013F9FC
:1018D00020680169C943090609D4C168C9430906DA
:1018E00005D46FF0800101612046FFF727FE2068D4
:1018F0000169C943490609D4C168C943490605D4E9
:101900006FF040010161204600F0F6F8206801699F
:10191000C94389060BD4C168C943890607D46FF04F
:10192000200101612046BDE87040FFF708BE70BD90
:1019300070B586B0044614216846FEF70CFD206899
:10194000B0F1804F27D115480024016841F0010112
:101950000160016801F001010591016841F0020197
:1019600001600068022500F0020005902020009030
:10197000CDE901540126CDE9034669460848FEF742
:10198000F9FF08200090CDE90154CDE903466946EE
:101990000448FEF7EFFF06B070BD0000303802408B
:1019A0000000024000040240704770B5044690F801
:1019B0003C0000260D4601280FD0012084F83C0091
:1019C0006AB1042A1DD0082A2FD00C2A3FD0012644
:1019D000002084F83C00304670BD022070BD2068B5
:1019E00001F040F92068816941F0080181612068B7
:1019F000816921F004018161206881692A691143AC
:101A000011E0206801F05EF92068816941F400610D
:101A100081612068816921F4806181612068816928
:101A20002A6941EA02218161D2E7206801F080F948
:101A30002068C16941F00801C1612068C16921F0D5
:101A40000401C1612068C1692A69114311E020685D
:101A500001F0A2F92068C16941F40061C161206808
:101A6000C16921F48061C1612068C1692A6941EAC4
:101A70000221C161ACE710B5040003D094F83D0029
:101A800010B107E0012010BD002084F83C00204682
:101A900000F01EF8022084F83D00211D206801F0AE
:101AA0007DF8012084F8460084F83E0084F83F0069
:101AB00084F8400084F8410084F8420084F8430030
:101AC00084F8440084F8450084F83D00002010BDEF
:101AD00008B50068B0F1804F08D10548016841F0B1
:101AE00001010160006800F00100009008BD0000E5
:101AF00040380240704770477047704710B5044641
:101B00000068406994F83D10C0F3C010212911D13C
:101B100080B12068143050E8001F21F0800140E8B7
:101B20000012002AF5D1606B08B1FEF744FD204693
:101B300001F014FA2068406994F83E10C0F3801058
:101B4000222911D180B12068143050E8001F21F003
:101B5000400140E80012002AF5D1A06B08B1FEF761
:101B60002AFD204601F0D3F9002010BD7047000087
:101B7000F8B5016804460868CA684B6910F00F0F91
:101B80004FF0000559D003F0010602F49077374377
:101B900065D0C10705D0D10503D5216C41F0010105
:101BA0002164410705D5D90703D0216C41F002011A
:101BB0002164810705D5D90703D0216C41F00401C8
:101BC0002164010707D502F02001314303D0216CC5
:101BD00041F008012164216C00293AD0800604D527
:101BE000900602D5204601F0C7F920684069216CB3
:101BF000C0F38010090700D460B3204601F087F9D4
:101C000020684069400621D52068143050E8001F44
:101C100021F0400140E80012002AF5D1A06BA8B1E4
:101C20006C490165A06BFEF70FFD002811D0A06B79
:101C3000016D01B0BDE8F040084783060FD593065B
:101C40000DD52046BDE8F84001F096B92046FFF7D3
:101C50008DFFF8BD2046FFF789FF2564F8BD266B90
:101C60002023012E79D1C60677D5D60675D508680A
:101C7000486800904869400640D5A16B08684068F4
:101C80000004000CEAD0A28D8242E7D9E085C86941
:101C9000B0F5807F2DD020680C3050E8001F21F473
:101CA000807140E80012002AF5D12068143050E815
:101CB000001F21F0010140E80012002AF5D1206840
:101CC000143050E8001F21F0400140E80012002AC3
:101CD000F5D184F83E30256320680C3050E8001FB1
:101CE00021F0100140E80012002AF5D1A06BFEF7A8
:101CF00062FCA08DE18D401A81B229E0A08DE18DBA
:101D0000401A81B2E08D0028A8D00029A6D0206812
:101D10000C3050E8002F22F4907240E80026002E8C
:101D2000F5D12068143050E8002F22F0010240E87D
:101D30000026002EF5D184F83E30256320680C3053
:101D400050E8002F22F0100240E80023002BF5D1CC
:101D50002046FFF7D2FEF8BDFFE705062BD5150696
:101D600029D594F83D002128F5D1A068B0F5805F11
:101D700001D12069B0B1206A411C2162216800783C
:101D80004860E08C401E0004000CE084E3D1206831
:101D9000C16821F08001C1602068C16841F0400144
:101DA000C160D8E7206A0088C0F308004860206A54
:101DB000801C2062E5E74006CDD55006CBD5CA6829
:101DC000204622F04002CA6084F83D3000F01BFA41
:101DD000C1E70000192E000870B5040004D094F883
:101DE0003D00002510B106E0012070BD84F83C5094
:101DF000204600F023F8242084F83D002068C168C4
:101E000021F40051C160204601F016F920680169F3
:101E100021F4904101612068416921F02A0141616A
:101E20002068C16841F40051C1602564202084F815
:101E30003D0084F83E00002070BD00002DE9F04F09
:101E400087B0054614216846FEF785FAD648DFF8C4
:101E5000548310380221D5F800C0D34B032200244C
:101E60008F0606154FF0080E4FF04009C44559D1B2
:101E7000D3F800C0A2464CF4002CC3F800C01B6885
:101E800003F400230593036843F004030360006830
:101E900000F00400059090028DE81300CDE9032EB8
:101EA0006946C248FEF766FDDFF80883C049404630
:101EB000C8F80010C0E90174C0E90346C8F814402E
:101EC000C8F81840C8F81C40C8F82040C8F824409A
:101ED000FEF79CFC08B1FEF76CFBB64CB448C5F8A5
:101EE000388060343030C8F8385084E88102C4E962
:101EF00003A6C4F814A0C4F818A0C4F81CA0C4F821
:101F000020A02046C4F824A0FEF780FC08B1FEF70C
:101F100050FB6C63002211463420A563FFF728F8BC
:101F2000342074E0DFF89082C44576D1D3F800C045
:101F30004CF4801CC3F800C01B6803F480130593A5
:101F4000036843F004030360036803F0040305938C
:101F5000036843F00803036000688A4600F0080045
:101F600005904FF48050CDE9000ACDE90242934636
:101F7000F0466946CDF810E08C48FEF7FBFC0420E3
:101F8000CDE9000ACDE9024B6946CDF810808B48B7
:101F9000FEF7F0FCDFF81C82854908F1C0083039F3
:101FA0004046C8F80010C0E90174C0E90346C8F80B
:101FB0001440C8F81840C8F81C40C8F82040BA4679
:101FC000C8F82440FEF722FC08B1FEF7F2FA7C4F75
:101FD000C5F83880C8F83850C7F80890C7E90346F4
:101FE0007C61BC617248FC613C6278307C62C7E90C
:101FF000000A3846FEF70AFC08B1FEF7DAFA6F630A
:10200000002211463520BD63FEF7B2FF3520FEF7F2
:10201000A1FF07B0BDE8F08FFFE7DFF8A8814FF020
:10202000070AC4455ED1604BA0461B1DD3F800C013
:102030004CF0100CC3F800C01B6803F010030593AC
:10204000036843F001030360006800F0010005909D
:102050004FF4C0608DE81300CDE9032A69465A4861
:10206000FEF788FCDFF858A158490AF1600A50468B
:10207000CAF80010C0E90174C0E90346CAF8144068
:10208000CAF81840CAF81C40CAF82040CAF82440D0
:10209000FEF7BCFB08B1FEF78CFA494C4B48C5F87B
:1020A00038A0C0347830CAF8385084E88102C4E9D6
:1020B0000386C4F81480C4F81880C4F81C80C4F8DF
:1020C00020802046C4F82480FEF7A0FB08B1FEF76C
:1020D00070FA6C63002211462520A563FEF748FFC5
:1020E000252094E7DFF8E880C44592D1D3F800C0FA
:1020F000A0464CF4802CC3F800C01B6803F4802376
:102100000593036843F008030360006800F00800CB
:1021100005904FF440708DE81300CDE9032A69461D
:102120002648FEF727FC2249DFF8A8A018395046B8
:10213000CAF80010C0E90174C0E90346CAF81440A7
:10214000CAF81840CAF81C40CAF82040CAF824400F
:10215000FEF75CFB08B1FEF72CFA1E4C1448C5F8DC
:1021600038A060341830CAF8385084E88102C4E9D5
:102170000386C4F81480C4F81880C4F81C80C4F81E
:1021800020802046C4F82480FEF740FB08B1FEF70B
:1021900010FA6C63002211462720A563FEF7E8FEC3
:1021A000272034E7004C004040380240000802403D
:1021B000406002402C03002000500040000C024010
:1021C0004C04002000100140000002404064024026
:1021D000004800406C05002090F83E30202B0ED1C6
:1021E00059B152B190F83C30012B08D0012380F84E
:1021F0003C300023036300F0A5BF0120704702209C
:102200007047704770477047FEE701684A69D243DC
:1022100052050FD46FF480624A61002140F8301FEC
:10222000202242738173026942F004020261017349
:1022300001207047002070472DE9F84304460068EC
:102240000D46DDE9089701689846164641F480710D
:1022500001604B4600224FF001112046009700F02C
:1022600065F848B120680068C00502D54FF40070D9
:1022700020640320BDE8F883216805F0FE000861B2
:102280003B464A461549204600F084F888B9206844
:102290004169806900903A464946204600F0C5F8F9
:1022A00048B1206C042804D12068016841F4007111
:1022B00001600120DEE7F5B2B8F1010F09D0216815
:1022C000300A08613A464946204600F0AEF8002838
:1022D000E7D1206805610020CCE700000200010082
:1022E00070B516460D4604460DE02046FFF78DFFFB
:1022F00008B1012070BD681C05D0FEF739FC801BB9
:10230000A84207D835B120684069C0434007ECD4E3
:10231000002070BD002044F8300F20216173A073AD
:10232000216941F0200121612073E2E72DE9F047A6
:102330001E4690460D460446C1F30747DDF820903F
:1023400008E0701C06D0FEF713FCA0EB0900B042B9
:102350000FD876B12068012F18D0806925EA0000D7
:102360000004000C14D000214145EAD00020BDE853
:10237000F087002044F8300F20216173A073216999
:1023800041F02001216120730120F0E74069E5E779
:102390000121E9E72DE9F0479A4691460E460446A9
:1023A00000254FF02008C1F3074725E02068406969
:1023B000C043400514D42068016841F400710160F5
:1023C00021686FF480604861256384F83D8084F85B
:1023D0003E50206C40F00400206484F83C501FE024
:1023E000B9F1FF3F08D0FEF7C3FBA0EB0A01494556
:1023F0000CD8B9F1000F09D02068012F13D08069E3
:1024000026EA00000004000C0BD0CFE744F8305F50
:1024100084F80D80A573206940F0200020612573A9
:102420000120BDE8F0874069EAE770B516460D4621
:1024300004460DE02046FFF7E8FE08B1012070BD1C
:10244000681C05D0FEF794FB801BA84207D835B165
:1024500020684069C0430006ECD4002070BD002015
:1024600044F8300F20216173A073216941F02001ED
:1024700021612073E2E70000294808B5016841F4B2
:1024800080010160016801F480010091016841F45C
:10249000001101600068002200F400100090114655
:1024A0000B20FEF765FD0B20FEF754FD00221146C0
:1024B0000C20FEF75DFD0C20FEF74CFD00221146BE
:1024C0000D20FEF755FD0D20FEF744FD00221146BC
:1024D0000E20FEF74DFD0E20FEF73CFD00221146BA
:1024E0000F20FEF745FD0F20FEF734FD00221146B8
:1024F0002F20FEF73DFD2F20FEF72CFD0022114678
:102500003A20FEF735FD3A20FEF724FD0022114661
:102510004620FEF72DFDBDE808404620FEF71ABD17
:102520003038024070B586B014216846FDF713FFBD
:1025300033480024016841F080010160016801F026
:1025400080010591016841F001010160016801F01D
:1025500001010591016841F010010160016801F07D
:1025600010010591016841F002010160016801F06C
:1025700002010591016841F008010160016801F064
:1025800008010591016841F00401016000681D4ED9
:1025900000F004004FF4F065059000222946304613
:1025A000FEF7E0FA01200095CDE9010469463046C6
:1025B0000394FEF7DFF94FF47840CDE90004694653
:1025C00030460294FEF7D6F94FF40040CDE90004FE
:1025D00069460D480294FEF7CDF96810CDE9000474
:1025E00069460A480294FEF7C5F94FF4C850CDE990
:1025F0000004694606480294FEF7BCF906B070BDB7
:102600003038024000100240000C02400008024036
:10261000000002400D4810B50B4901600C494160B3
:1026200000214FF480428160C0E903124161816161
:10263000C1610162FEF7A2FA002803D0BDE8104094
:10264000FDF7B7BF10BD000000580040600000203B
:10265000A086010010B58AB0002407941C216846AA
:102660000894FDF778FE19484FF08041C0E9001446
:1026700044F29F11C0E9024104618461FFF7FBF954
:1026800008B1FDF796FF079407A910480894FEF7D4
:1026900057FF08B1FDF78DFF6020CDE900040294DB
:1026A0000022694609480494FFF77FF908B1FDF755
:1026B00080FF042269460548FFF777F908B1FDF766
:1026C00078FF0248FFF734F90AB010BDB4000020CB
:1026D00010B58CB024216846FDF73DFE0024164855
:1026E000099414490A94C0E900144FF6FF71C0E937
:1026F0000241046184610320CDE900040120CDE999
:1027000002040494CDE90540079469460A480894F8
:10271000FEF7B6FF08B1FDF74CFF099409A906487A
:102720000A94FEF70DFF002801D0FDF742FF0CB020
:1027300010BD000000040040FC00002010B58CB06B
:1027400024216846FDF707FE002416480994144921
:102750000A94C0E900144FF6FF71C0E90241046118
:1027600084610320CDE900040120CDE90204049432
:10277000CDE90540079469460A480894FEF780FFB2
:1027800008B1FDF716FF099409A906480A94FEF757
:10279000D7FE002801D0FDF70CFF0CB010BD0000E3
:1027A00000080040440100201CB500240E4800949D
:1027B0000C490194016044F29F11C0E901146321A6
:1027C0008461C160FEF704FF08B1FDF7F2FE0094DA
:1027D000694605480194FEF7B3FE002801D0FDF7D5
:1027E000E8FE1CBD001000408C0100201CB5002438
:1027F0000E4800940C490194C0E900144FF6FF7193
:10280000C0E902418461FEF7E3FE08B1FDF7D1FEA5
:102810000094694605480194FEF792FE002801D015
:10282000FDF7C7FE1CBD000000140040D4010020CD
:102830000C4810B50A4901604FF4E13141600021B4
:1028400081600C22C160C0E904128161C161FFF79F
:10285000C3FA002803D0BDE81040FDF7AABE10BDA2
:10286000004C00401C0200200C4810B50A490160D1
:102870004FF4E1314160002181600C22C160C0E968
:1028800004128161C161FFF7A7FA002803D0BDE8F7
:102890001040FDF78EBE10BD0050004060020020C9
:1028A0000C4810B50A4901604FF4E1314160002144
:1028B00081600C22C160C0E904128161C161FFF72F
:1028C0008BFA002803D0BDE81040FDF772BE10BDA2
:1028D00000100140A40200200C4810B50A49016014
:1028E0004FF4E1314160002181600C22C160C0E9F8
:1028F00004128161C161FFF76FFA002803D0BDE8BF
:102900001040FDF756BE10BD00480040E802002010
:10291000FEE7FEE730B40021084B0A465FF00000F6
:1029200003EBC004401CC0B262548028F8D3491C99
:10293000C9B20829F2D330BC00F092B82C060020AE
:1029400030B1012807D100215FF0A70000F0AEB838
:102950000021A620FAE7704710B558B1012810D120
:102960000021C02000F0A2F80021A020BDE8104006
:1029700000F09CB80021C82000F098F80021A120A8
:10298000F4E710BD10B50021AE2000F08FF8002153
:10299000084600F08BF80021102000F087F8002195
:1029A000402000F083F80021812000F07FF8002112
:1029B000CF2000F07BF80021A12000F077F8002163
:1029C000C82000F073F80021A62000F06FF8002165
:1029D000A82000F06BF800213F2000F067F80021EC
:1029E000D32000F063F80021084600F05FF80021D2
:1029F000D52000F05BF80021802000F057F800217E
:102A0000D92000F053F80021F12000F04FF8002108
:102A1000DA2000F04BF80021122000F047F80021E6
:102A2000DB2000F043F80021302000F03FF80021C7
:102A3000202000F03BF80021022000F037F80021B0
:102A40008D2000F033F80021142000F02FF8FFF75C
:102A500061FF0021BDE81040AF2000F027B8000062
:102A600070B5114E002400BF04F1B000C0B20021C7
:102A700000F01CF80021084600F018F80021102092
:102A800000F014F85FF0000506EBC5000121005DC1
:102A900000F00CF86D1CEDB2802DF5D3641CE4B28F
:102AA000082CE1D370BD00002C06002003B583B0D4
:102AB000012203ABCDE900324FF48070029013463F
:102AC00009B1402200E0002278210248FEF71AF9FD
:102AD00005B000BD6000002070477047FEF7E0B908
:102AE00030B593B030216846FDF735FC14210CA8B1
:102AF000FDF731FC1D480025016841F0805101605F
:102B0000006800F0805011901948016841F480413C
:102B100001600068022400F48040119001200090C0
:102B2000000401908001CDE9064008AA0420A821F4
:102B300082E813000B906846FEF736FB08B172B6C8
:102B4000FEE70CA90F2081E831004FF4A0500F9050
:102B50004FF48050109005210CA8FEF73BFA002896
:102B600001D072B6FEE713B030BD0000403802401D
:102B7000007000400248016841F470010160704734
:102B800088ED00E010B50448FEF71FFEBDE81040D8
:102B90000148FEF7B0BF00008C010020F0B50268CC
:102BA000254C264D264E274F274B4FF0804CA042F8
:102BB00009D0604507D0A84205D0B04203D0B84242
:102BC00001D0984204D122F0700E4A6842EA0E0207
:102BD000A0421BD0604519D0A84217D0B04215D0F2
:102BE000B84213D0984211D0184DA8420ED0184DBB
:102BF000A8420BD0174DA84208D0174DA84205D0C7
:102C0000164DA84202D0164DA84203D122F44075B9
:102C1000CA682A434D6922F080022A4302608A680A
:102C2000C2620A688262A04201D0984201D1096959
:102C3000016301214161F0BD00000140000400403A
:102C400000080040000C004000040140004001402A
:102C5000004401400048014000180040001C0040B2
:102C600000200040F0B5026A22F001020262036A0D
:102C700042688469124E24F073050C682C4323F0DB
:102C800002058B682B430D4DA84201D0B04205D1FF
:102C900023F00807CB683B4323F00403A84201D08C
:102CA000B04205D14D6922F4407215438A692A4326
:102CB00042608461496841630362F0BD00000140E5
:102CC00000040140F0B5026A22F010020262026ABA
:102CD000436884690D6824F4E64444EA05248D6859
:102CE00022F0200242EA05120F4D104EA84201D0F8
:102CF000B04206D1CF6822F0800242EA071222F0E9
:102D00004002A84201D0B04207D14D6923F440638C
:102D100043EA85038D6943EA85034360846149681A
:102D200081630262F0BD0000000001400004014028
:102D3000F0B5026A22F480720262026A4368C469D2
:102D400022F4007224F073050C68124E2C438D6837
:102D500042EA05220E4DA84201D0B04206D1CF680A
:102D600022F4006242EA072222F48062A84201D0E3
:102D7000B04207D14D6923F4405343EA05138D69EE
:102D800043EA05134360C4614968C1630262F0BD50
:102D9000000001400004014030B5026A22F4805274
:102DA0000262046A4268C3690D6823F4E64343EA99
:102DB00005238D6824F4005444EA0534084DA842E4
:102DC00002D0084DA84204D14D6922F4804242EA63
:102DD00085124260C36149680164046230BD00002D
:102DE000000001400004014010B50448FEF7C0FE99
:102DF000BDE810400148FDF713BB00001C02002095
:102E000010B50448FEF7B4FEBDE810400148FDF7D8
:102E100007BB00006002002010B5806B0021C18557
:102E2000C184FEF7A3FE10BD70B5846B20684069B5
:102E300094F83D10C0F3C0100025212904D118B129
:102E4000E584204600F08AF82068406994F83E1036
:102E5000C0F38010222904D118B1E585204600F086
:102E600056F8206C40F0100020642046FEF77EFEED
:102E700070BD10B50146806B09680968C9052FD47B
:102E80000021C18501680C3151E8002F22F48072C5
:102E900041E80023002BF5D10168143151E8002FDF
:102EA00022F0010241E80023002BF5D10168143122
:102EB00051E8002F22F0400241E80023002BF5D119
:102EC000202180F83E10016B012909D101680C31E5
:102ED00051E8002F22F0100241E80023002BF5D129
:102EE000016B012902D0FFF78CF910BD818DFEF72F
:102EF00004FE10BD10B5806B016B012902D0FFF7F5
:102F000081F910BD818D4908FEF7F7FD10BD0168FC
:102F10000C3151E8002F22F4907241E80023002B7D
:102F2000F5D10168143151E8002F22F0010241E887
:102F30000023002BF5D1016B012909D101680C3167
:102F400051E8002F22F0100241E80023002BF5D1B8
:102F5000202180F83E1000210163704701680C3188
:102F600051E8002F22F0C00241E80023002BF5D1E8
:102F7000202180F83D10704708B590F83E102229B6
:102F800001D0022008BD82684FF480539A4201D1DB
:102F9000016921B1816A9A421BD04AB10AE00268F4
:102FA000816A5268C2F308020A80816A891C08E0BB
:102FB000026972B10268526802F07F020A70816A87
:102FC000491C8162C18D491E0904090CC18503D0C9
:102FD00019E002685268F1E70168CA6822F020022D
:102FE000CA600168CA6822F48072CA6001684A69CE
:102FF00022F001024A61202180F83E10016B012974
:1030000003D0FFF7FEF8002008BD0021016301682E
:103010000C3151E8002F22F0100241E80023002B70
:10302000F5D101680A68D20602D50A68496800919C
:10303000818DFEF762FDE6E770B504460068016920
:10304000E26821F44051114301612169A068E269FD
:1030500008436169114308432168CA6849F20C6357
:103060009A430243CA6020684169A26921F4407111
:103070001143416131492068884202D03049884279
:1030800002D1FEF751F801E0FEF73EF8E2690023B5
:10309000192164253226B2F5004F626828D0A0FBC2
:1030A0000101930F9200FDF7DFF80146B0FBF5F048
:1030B0006FF01802504301EB800006EB0010B0FBEC
:1030C000F5F000F0F002B1FBF5F002EB0012B1FBFD
:1030D000F5F06FF01803584301EB800006EB001089
:1030E000B0FBF5F000F00F0021681044886070BD5F
:1030F000A0FB010192185B41FDF7B6F80146B0FB59
:10310000F5F00201B1FBF5F06FF01803584301EB45
:10311000800006EBC000B0FBF5F000F0F80002EB19
:103120004002B1FBF5F0584301EB800006EBC00014
:10313000B0FBF5F000F00700D6E7000000100140FA
:103140000014014038B5816282850025134604468B
:103150000564222084F83E00A26B1C48D063A26B59
:103160001B481064A26B1B48D064A06B0A4605651F
:103170002168A06B091DFDF7B3FB2068016840685A
:10318000009084F83C50206948B120680C3050E829
:10319000001F41F4807140E80012002AF5D1206838
:1031A000143050E8001F41F0010140E80012002AED
:1031B000F5D12068143050E8001F41F0400140E88C
:1031C0000012002AF5D1002038BD0000732E00083F
:1031D000F52E0008292E000810B50448FEF7C8FC9B
:1031E000BDE810400148FDF71BB90000A402002013
:1031F00010B50448FEF7BCFCBDE810400148FDF7DF
:103200000FB90000E8020020FEE70907090E0028B8
:1032100004DB00F1E02080F80014704700F00F009C
:1032200000F1E02080F8141D70470000FDF740FE1B
:10323000FFF756FCFFF776F9FFF71EF9FFF730FBB3
:10324000FFF74AFBFFF7F4FAFFF70EFBFFF7E2F98F
:10325000FFF700FAFFF73CFAFFF770FAFFF7A4FA5E
:10326000FFF7C4FA4FF47A70FDF772FBFFF78AFBA1
:103270000020FFF765FB0020FFF76EFB14221749C3
:103280001748FEF7A9FF16480068C16841F0100111
:10329000C1601249142214311248FEF79DFF1148F3
:1032A0000068C16841F01001C1600C491422283146
:1032B0000D48FEF791FF0C480068C16841F010010D
:1032C000C160064914223C310848FEF785FF0748D3
:1032D0000068C16841F01001C160FEE710000020E5
:1032E000A4020020E80200201C020020600200204E
:1032F0004FF04070E1EE100A70470006101600060D
:103300001016000000000000000001020304060780
:103310000809000000000102030400003C3300081B
:103320000000002010000000C40100084C33000819
:103330001000002000110000E00100080100000062
:0C33400010000000000000000024F40059
:040000050800018965
:00000001FF
